:1000000000300020B5080000590B0000590B00001B
:10001000590B0000590B0000590B0000590B000050
:10002000590B0000590B0000590B0000590B000040
:10003000590B0000590B0000590B0000590B000030
:10004000590B0000590B0000590B0000590B000020
:10005000590B0000590B0000590B0000590B000010
:10006000590B0000590B0000590B0000590B000000
:10007000590B0000590B0000590B0000590B0000F0
:10008000590B0000590B0000590B0000590B0000E0
:10009000590B0000590B0000590B0000590B0000D0
:1000A000590B0000590B0000590B0000590B0000C0
:1000B000590B0000590B0000590B0000590B0000B0
:1008000080B588B000AF72B6274BBB61BB6924339B
:100810007B61264B3B613B691433FB603B69BB60EA
:100820003B690C337B607B69802252001A60BB6895
:100830001B68802292001A43BB681A60FB681B6821
:10084000802292001A43FB681A60BB681A68184B32
:100850001A40BB681A60BB681B68802292001A436A
:10086000BB681A60BB681A68114B1A40BB681A60F3
:10087000BB681B68802292001A43BB681A60002381
:10088000FB6162B6FB690133FB61FB69042B09D98B
:100890000023FB617B681B68802292001A437B68FF
:1008A0001A60EFE7EEE7C04600A0044040F00F40BA
:1008B000FFFDFFFF80B500AF084A88235B010021E0
:1008C000D15000F00DF800F035F800F04FF800F0CE
:1008D00083F800F06FF8FFF793FFFEE70070044025
:1008E00080B582B000AF0E4A0E4B9A4211D0002361
:1008F0007B600AE00B4A7B68D3181A7808497B684A
:10090000CB181A707B6801337B607A68064B9A4279
:10091000F0D9064A0249064BD150BD4602B080BD0F
:1009200000F0FF1F000000000F04000000E000E0E6
:10093000080D000080B584B000AF0A4BBB600A4BC5
:100940007B607A68BB68D31AFB6002E0BB68002258
:100950001A70FB685A1EFA60002BF7D1BD4604B02E
:1009600080BDC046100400201004002080B584B073
:1009700000AF0D4BFB600D4B3B600D4BBB603A680D
:10098000FB68D31A7B6007E0FB685A1CFA60BA6800
:10099000511CB96012781A707B685A1E7A60002B5D
:1009A000F2D1BD4604B080BD100400201004002028
:1009B000600B000080B500AF054A0549054BCB58D8
:1009C000F82189011943034BD150BD4680BDC04673
:1009D000007004403810000080B582B000AF0023E2
:1009E0007B60FB1C00221A70544B14225A70534B2C
:1009F00098221A7000237B600AE0504B9B79DBB28F
:100A00001A1C0223134000D006E07B6801337B6090
:100A10007A684B4B9A42F0D900237B600AE0474B3F
:100A20009B79DBB21A1C1023134000D106E07B68CF
:100A300001337B607A68434B9A42F0D900237B6094
:100A40000CE03E4B9B79DBB21A1C0C2313409B0835
:100A5000022B00D106E07B6801337B607A68394B5A
:100A60009A42EED9354B354A5279D2B220210A4307
:100A7000D2B25A71314B314A1279D2B201210A43B2
:100A8000D2B21A712D4AFB1C52791A70FB1CFA1C47
:100A900012781F218A431A70FB1CFA1C127840211D
:100AA0000A431A70254BFA1C12785A7100237B6096
:100AB0000AE0224B9B79DBB21A1C2023134000D0A2
:100AC00006E07B6801337B607A681E4B9A42F0D95E
:100AD00000237B600AE0194B9B79DBB21A1C402390
:100AE000134000D006E07B6801337B607A68164BC8
:100AF0009A42F0D9154A164B1649D1500F4B0F4A5E
:100B00001278D1B23F220A40D2B21A7000237B6021
:100B10000CE00A4B9B79DBB21A1C0C2313409B0898
:100B2000032B00D106E07B6801337B607A68054BBC
:100B30009A42EED9BD4602B080BDC0460040064094
:100B40001F4E0000CF0700009F0F00000070044000
:100B5000441000000000011080B500AFBD4680BD0C
:100B6000600B00001004002000000000600B00007B
:100B700010F4FF1F00000000000000000000000053
:040B80000000000071
:04000003000008B53C
:00000001FF
